{
  "_format": "hh-sol-artifact-1",
  "contractName": "EnhancedDataRequestContract",
  "sourceName": "contracts/EnhancedDataRequestContract.sol",
  "abi": [
    {
      "anonymous": false,
      "inputs": [
        {
          "indexed": false,
          "internalType": "uint256",
          "name": "requestId",
          "type": "uint256"
        }
      ],
      "name": "DataRequestApproved",
      "type": "event"
    },
    {
      "anonymous": false,
      "inputs": [
        {
          "indexed": false,
          "internalType": "uint256",
          "name": "requestId",
          "type": "uint256"
        }
      ],
      "name": "DataRequestRejected",
      "type": "event"
    },
    {
      "anonymous": false,
      "inputs": [
        {
          "indexed": false,
          "internalType": "address",
          "name": "user",
          "type": "address"
        },
        {
          "indexed": false,
          "internalType": "uint256",
          "name": "requestId",
          "type": "uint256"
        },
        {
          "indexed": false,
          "internalType": "uint256[]",
          "name": "requestIds",
          "type": "uint256[]"
        }
      ],
      "name": "DebugUserRequest",
      "type": "event"
    },
    {
      "anonymous": false,
      "inputs": [
        {
          "indexed": false,
          "internalType": "uint256",
          "name": "requestId",
          "type": "uint256"
        },
        {
          "indexed": true,
          "internalType": "address",
          "name": "requester",
          "type": "address"
        },
        {
          "indexed": true,
          "internalType": "address",
          "name": "user",
          "type": "address"
        },
        {
          "indexed": false,
          "internalType": "string[]",
          "name": "fields",
          "type": "string[]"
        }
      ],
      "name": "NewDataRequest",
      "type": "event"
    },
    {
      "inputs": [
        {
          "internalType": "uint256",
          "name": "_requestId",
          "type": "uint256"
        }
      ],
      "name": "approveRequest",
      "outputs": [],
      "stateMutability": "nonpayable",
      "type": "function"
    },
    {
      "inputs": [
        {
          "internalType": "address",
          "name": "_user",
          "type": "address"
        }
      ],
      "name": "getDetailedUserRequests",
      "outputs": [
        {
          "components": [
            {
              "internalType": "uint256",
              "name": "id",
              "type": "uint256"
            },
            {
              "internalType": "address",
              "name": "requester",
              "type": "address"
            },
            {
              "internalType": "address",
              "name": "user",
              "type": "address"
            },
            {
              "internalType": "string[]",
              "name": "fields",
              "type": "string[]"
            },
            {
              "internalType": "enum EnhancedDataRequestContract.RequestStatus",
              "name": "status",
              "type": "uint8"
            }
          ],
          "internalType": "struct EnhancedDataRequestContract.DataRequest[]",
          "name": "",
          "type": "tuple[]"
        }
      ],
      "stateMutability": "view",
      "type": "function"
    },
    {
      "inputs": [
        {
          "internalType": "uint256",
          "name": "_requestId",
          "type": "uint256"
        }
      ],
      "name": "getRequestStatus",
      "outputs": [
        {
          "internalType": "enum EnhancedDataRequestContract.RequestStatus",
          "name": "",
          "type": "uint8"
        }
      ],
      "stateMutability": "view",
      "type": "function"
    },
    {
      "inputs": [
        {
          "internalType": "address",
          "name": "_requester",
          "type": "address"
        }
      ],
      "name": "getRequestsByRequester",
      "outputs": [
        {
          "internalType": "uint256[]",
          "name": "",
          "type": "uint256[]"
        }
      ],
      "stateMutability": "view",
      "type": "function"
    },
    {
      "inputs": [
        {
          "internalType": "address",
          "name": "_user",
          "type": "address"
        }
      ],
      "name": "getUserRequests",
      "outputs": [
        {
          "internalType": "uint256[]",
          "name": "",
          "type": "uint256[]"
        }
      ],
      "stateMutability": "view",
      "type": "function"
    },
    {
      "inputs": [
        {
          "internalType": "uint256",
          "name": "_requestId",
          "type": "uint256"
        }
      ],
      "name": "rejectRequest",
      "outputs": [],
      "stateMutability": "nonpayable",
      "type": "function"
    },
    {
      "inputs": [
        {
          "internalType": "address",
          "name": "_user",
          "type": "address"
        },
        {
          "internalType": "string[]",
          "name": "_fields",
          "type": "string[]"
        }
      ],
      "name": "requestData",
      "outputs": [],
      "stateMutability": "nonpayable",
      "type": "function"
    },
    {
      "inputs": [
        {
          "internalType": "address",
          "name": "",
          "type": "address"
        },
        {
          "internalType": "uint256",
          "name": "",
          "type": "uint256"
        }
      ],
      "name": "requesterToRequestIds",
      "outputs": [
        {
          "internalType": "uint256",
          "name": "",
          "type": "uint256"
        }
      ],
      "stateMutability": "view",
      "type": "function"
    },
    {
      "inputs": [
        {
          "internalType": "uint256",
          "name": "",
          "type": "uint256"
        }
      ],
      "name": "requests",
      "outputs": [
        {
          "internalType": "uint256",
          "name": "id",
          "type": "uint256"
        },
        {
          "internalType": "address",
          "name": "requester",
          "type": "address"
        },
        {
          "internalType": "address",
          "name": "user",
          "type": "address"
        },
        {
          "internalType": "enum EnhancedDataRequestContract.RequestStatus",
          "name": "status",
          "type": "uint8"
        }
      ],
      "stateMutability": "view",
      "type": "function"
    },
    {
      "inputs": [
        {
          "internalType": "address",
          "name": "",
          "type": "address"
        },
        {
          "internalType": "uint256",
          "name": "",
          "type": "uint256"
        }
      ],
      "name": "userToRequestIds",
      "outputs": [
        {
          "internalType": "uint256",
          "name": "",
          "type": "uint256"
        }
      ],
      "stateMutability": "view",
      "type": "function"
    }
  ],
  "bytecode": "0x6080604052600060035534801561001557600080fd5b50611fd8806100256000396000f3fe608060405234801561001057600080fd5b506004361061009e5760003560e01c806381d12c581161006657806381d12c581461016b578063b337cf741461019e578063d7d1bbdb146101ce578063d8a4676f146101ea578063fc2304a51461021a5761009e565b80630931792c146100a35780632aac38c0146100d35780632d7788db14610103578063633847e21461011f578063670063941461013b575b600080fd5b6100bd60048036038101906100b89190611030565b61024a565b6040516100ca919061107f565b60405180910390f35b6100ed60048036038101906100e8919061109a565b61027b565b6040516100fa9190611185565b60405180910390f35b61011d600480360381019061011891906111a7565b610312565b005b61013960048036038101906101349190611400565b61049a565b005b6101556004803603810190610150919061109a565b610812565b604051610162919061175b565b60405180910390f35b610185600480360381019061018091906111a7565b610b48565b604051610195949392919061179b565b60405180910390f35b6101b860048036038101906101b3919061109a565b610bc5565b6040516101c59190611185565b60405180910390f35b6101e860048036038101906101e391906111a7565b610c5c565b005b61020460048036038101906101ff91906111a7565b610de4565b60405161021191906117e0565b60405180910390f35b610234600480360381019061022f9190611030565b610e10565b604051610241919061107f565b60405180910390f35b6001602052816000526040600020818154811061026657600080fd5b90600052602060002001600091509150505481565b6060600260008373ffffffffffffffffffffffffffffffffffffffff1673ffffffffffffffffffffffffffffffffffffffff16815260200190815260200160002080548060200260200160405190810160405280929190818152602001828054801561030657602002820191906000526020600020905b8154815260200190600101908083116102f2575b50505050509050919050565b600080600083815260200190815260200160002090508060020160009054906101000a900473ffffffffffffffffffffffffffffffffffffffff1673ffffffffffffffffffffffffffffffffffffffff163373ffffffffffffffffffffffffffffffffffffffff16146103ba576040517f08c379a00000000000000000000000000000000000000000000000000000000081526004016103b19061187e565b60405180910390fd5b600060028111156103ce576103cd6115d8565b5b8160040160009054906101000a900460ff1660028111156103f2576103f16115d8565b5b14610432576040517f08c379a000000000000000000000000000000000000000000000000000000000815260040161042990611910565b60405180910390fd5b60028160040160006101000a81548160ff0219169083600281111561045a576104596115d8565b5b02179055507f87c86875a161a926095aa94677d7d51e4c3287924ff45bff0c893d3a60bc49958260405161048e919061107f565b60405180910390a15050565b60008151116104de576040517f08c379a00000000000000000000000000000000000000000000000000000000081526004016104d5906119a2565b60405180910390fd5b600360008154809291906104f1906119f1565b91905055506040518060a0016040528060035481526020013373ffffffffffffffffffffffffffffffffffffffff1681526020018373ffffffffffffffffffffffffffffffffffffffff1681526020018281526020016000600281111561055b5761055a6115d8565b5b81525060008060035481526020019081526020016000206000820151816000015560208201518160010160006101000a81548173ffffffffffffffffffffffffffffffffffffffff021916908373ffffffffffffffffffffffffffffffffffffffff16021790555060408201518160020160006101000a81548173ffffffffffffffffffffffffffffffffffffffff021916908373ffffffffffffffffffffffffffffffffffffffff1602179055506060820151816003019080519060200190610626929190610e41565b5060808201518160040160006101000a81548160ff02191690836002811115610652576106516115d8565b5b0217905550905050600160008373ffffffffffffffffffffffffffffffffffffffff1673ffffffffffffffffffffffffffffffffffffffff1681526020019081526020016000206003549080600181540180825580915050600190039060005260206000200160009091909190915055600260003373ffffffffffffffffffffffffffffffffffffffff1673ffffffffffffffffffffffffffffffffffffffff16815260200190815260200160002060035490806001815401808255809150506001900390600052602060002001600090919091909150558173ffffffffffffffffffffffffffffffffffffffff163373ffffffffffffffffffffffffffffffffffffffff167fe4bf495d1a93acbfd9ac4ef0e94ce4d30cbd371e033155efb40ce754830789936003548460405161078b929190611abf565b60405180910390a37f37c376dd93fc81a78a45a76be8c82147783ddf272f8045362f64a4f6a941fba082600354600160008673ffffffffffffffffffffffffffffffffffffffff1673ffffffffffffffffffffffffffffffffffffffff16815260200190815260200160002060405161080693929190611bc5565b60405180910390a15050565b60606000600160008473ffffffffffffffffffffffffffffffffffffffff1673ffffffffffffffffffffffffffffffffffffffff16815260200190815260200160002080548060200260200160405190810160405280929190818152602001828054801561089f57602002820191906000526020600020905b81548152602001906001019080831161088b575b505050505090506000815167ffffffffffffffff8111156108c3576108c26111ea565b5b6040519080825280602002602001820160405280156108fc57816020015b6108e9610e9a565b8152602001906001900390816108e15790505b50905060005b8251811015610b3d5760008084838151811061092157610920611c03565b5b602002602001015181526020019081526020016000206040518060a0016040529081600082015481526020016001820160009054906101000a900473ffffffffffffffffffffffffffffffffffffffff1673ffffffffffffffffffffffffffffffffffffffff1673ffffffffffffffffffffffffffffffffffffffff1681526020016002820160009054906101000a900473ffffffffffffffffffffffffffffffffffffffff1673ffffffffffffffffffffffffffffffffffffffff1673ffffffffffffffffffffffffffffffffffffffff16815260200160038201805480602002602001604051908101604052809291908181526020016000905b82821015610ac9578382906000526020600020018054610a3c90611c61565b80601f0160208091040260200160405190810160405280929190818152602001828054610a6890611c61565b8015610ab55780601f10610a8a57610100808354040283529160200191610ab5565b820191906000526020600020905b815481529060010190602001808311610a9857829003601f168201915b505050505081526020019060010190610a1d565b5050505081526020016004820160009054906101000a900460ff166002811115610af657610af56115d8565b5b6002811115610b0857610b076115d8565b5b81525050828281518110610b1f57610b1e611c03565b5b60200260200101819052508080610b35906119f1565b915050610902565b508092505050919050565b60006020528060005260406000206000915090508060000154908060010160009054906101000a900473ffffffffffffffffffffffffffffffffffffffff16908060020160009054906101000a900473ffffffffffffffffffffffffffffffffffffffff16908060040160009054906101000a900460ff16905084565b6060600160008373ffffffffffffffffffffffffffffffffffffffff1673ffffffffffffffffffffffffffffffffffffffff168152602001908152602001600020805480602002602001604051908101604052809291908181526020018280548015610c5057602002820191906000526020600020905b815481526020019060010190808311610c3c575b50505050509050919050565b600080600083815260200190815260200160002090508060020160009054906101000a900473ffffffffffffffffffffffffffffffffffffffff1673ffffffffffffffffffffffffffffffffffffffff163373ffffffffffffffffffffffffffffffffffffffff1614610d04576040517f08c379a0000000000000000000000000000000000000000000000000000000008152600401610cfb90611d04565b60405180910390fd5b60006002811115610d1857610d176115d8565b5b8160040160009054906101000a900460ff166002811115610d3c57610d3b6115d8565b5b14610d7c576040517f08c379a0000000000000000000000000000000000000000000000000000000008152600401610d7390611910565b60405180910390fd5b60018160040160006101000a81548160ff02191690836002811115610da457610da36115d8565b5b02179055507f0c8689f8b0f2678fe778b84816568d0687dd762812a061da362d37f9a74ad54d82604051610dd8919061107f565b60405180910390a15050565b600080600083815260200190815260200160002060040160009054906101000a900460ff169050919050565b60026020528160005260406000208181548110610e2c57600080fd5b90600052602060002001600091509150505481565b828054828255906000526020600020908101928215610e89579160200282015b82811115610e88578251829081610e789190611ed0565b5091602001919060010190610e61565b5b509050610e969190610f07565b5090565b6040518060a0016040528060008152602001600073ffffffffffffffffffffffffffffffffffffffff168152602001600073ffffffffffffffffffffffffffffffffffffffff1681526020016060815260200160006002811115610f0157610f006115d8565b5b81525090565b5b80821115610f275760008181610f1e9190610f2b565b50600101610f08565b5090565b508054610f3790611c61565b6000825580601f10610f495750610f68565b601f016020900490600052602060002090810190610f679190610f6b565b5b50565b5b80821115610f84576000816000905550600101610f6c565b5090565b6000604051905090565b600080fd5b600080fd5b600073ffffffffffffffffffffffffffffffffffffffff82169050919050565b6000610fc782610f9c565b9050919050565b610fd781610fbc565b8114610fe257600080fd5b50565b600081359050610ff481610fce565b92915050565b6000819050919050565b61100d81610ffa565b811461101857600080fd5b50565b60008135905061102a81611004565b92915050565b6000806040838503121561104757611046610f92565b5b600061105585828601610fe5565b92505060206110668582860161101b565b9150509250929050565b61107981610ffa565b82525050565b60006020820190506110946000830184611070565b92915050565b6000602082840312156110b0576110af610f92565b5b60006110be84828501610fe5565b91505092915050565b600081519050919050565b600082825260208201905092915050565b6000819050602082019050919050565b6110fc81610ffa565b82525050565b600061110e83836110f3565b60208301905092915050565b6000602082019050919050565b6000611132826110c7565b61113c81856110d2565b9350611147836110e3565b8060005b8381101561117857815161115f8882611102565b975061116a8361111a565b92505060018101905061114b565b5085935050505092915050565b6000602082019050818103600083015261119f8184611127565b905092915050565b6000602082840312156111bd576111bc610f92565b5b60006111cb8482850161101b565b91505092915050565b600080fd5b6000601f19601f8301169050919050565b7f4e487b7100000000000000000000000000000000000000000000000000000000600052604160045260246000fd5b611222826111d9565b810181811067ffffffffffffffff82111715611241576112406111ea565b5b80604052505050565b6000611254610f88565b90506112608282611219565b919050565b600067ffffffffffffffff8211156112805761127f6111ea565b5b602082029050602081019050919050565b600080fd5b600080fd5b600067ffffffffffffffff8211156112b6576112b56111ea565b5b6112bf826111d9565b9050602081019050919050565b82818337600083830152505050565b60006112ee6112e98461129b565b61124a565b90508281526020810184848401111561130a57611309611296565b5b6113158482856112cc565b509392505050565b600082601f830112611332576113316111d4565b5b81356113428482602086016112db565b91505092915050565b600061135e61135984611265565b61124a565b9050808382526020820190506020840283018581111561138157611380611291565b5b835b818110156113c857803567ffffffffffffffff8111156113a6576113a56111d4565b5b8086016113b3898261131d565b85526020850194505050602081019050611383565b5050509392505050565b600082601f8301126113e7576113e66111d4565b5b81356113f784826020860161134b565b91505092915050565b6000806040838503121561141757611416610f92565b5b600061142585828601610fe5565b925050602083013567ffffffffffffffff81111561144657611445610f97565b5b611452858286016113d2565b9150509250929050565b600081519050919050565b600082825260208201905092915050565b6000819050602082019050919050565b61149181610fbc565b82525050565b600081519050919050565b600082825260208201905092915050565b6000819050602082019050919050565b600081519050919050565b600082825260208201905092915050565b60005b838110156114fd5780820151818401526020810190506114e2565b60008484015250505050565b6000611514826114c3565b61151e81856114ce565b935061152e8185602086016114df565b611537816111d9565b840191505092915050565b600061154e8383611509565b905092915050565b6000602082019050919050565b600061156e82611497565b61157881856114a2565b93508360208202850161158a856114b3565b8060005b858110156115c657848403895281516115a78582611542565b94506115b283611556565b925060208a0199505060018101905061158e565b50829750879550505050505092915050565b7f4e487b7100000000000000000000000000000000000000000000000000000000600052602160045260246000fd5b60038110611618576116176115d8565b5b50565b600081905061162982611607565b919050565b60006116398261161b565b9050919050565b6116498161162e565b82525050565b600060a08301600083015161166760008601826110f3565b50602083015161167a6020860182611488565b50604083015161168d6040860182611488565b50606083015184820360608601526116a58282611563565b91505060808301516116ba6080860182611640565b508091505092915050565b60006116d1838361164f565b905092915050565b6000602082019050919050565b60006116f18261145c565b6116fb8185611467565b93508360208202850161170d85611478565b8060005b85811015611749578484038952815161172a85826116c5565b9450611735836116d9565b925060208a01995050600181019050611711565b50829750879550505050505092915050565b6000602082019050818103600083015261177581846116e6565b905092915050565b61178681610fbc565b82525050565b6117958161162e565b82525050565b60006080820190506117b06000830187611070565b6117bd602083018661177d565b6117ca604083018561177d565b6117d7606083018461178c565b95945050505050565b60006020820190506117f5600083018461178c565b92915050565b600082825260208201905092915050565b7f4f6e6c7920746865206173736f63696174656420757365722063616e2072656a60008201527f6563742074686973207265717565737400000000000000000000000000000000602082015250565b60006118686030836117fb565b91506118738261180c565b604082019050919050565b600060208201905081810360008301526118978161185b565b9050919050565b7f52657175657374206973206e6f7420696e20612070656e64696e67207374617460008201527f6500000000000000000000000000000000000000000000000000000000000000602082015250565b60006118fa6021836117fb565b91506119058261189e565b604082019050919050565b60006020820190508181036000830152611929816118ed565b9050919050565b7f4174206c65617374206f6e65206669656c642073686f756c642062652072657160008201527f7565737465642e00000000000000000000000000000000000000000000000000602082015250565b600061198c6027836117fb565b915061199782611930565b604082019050919050565b600060208201905081810360008301526119bb8161197f565b9050919050565b7f4e487b7100000000000000000000000000000000000000000000000000000000600052601160045260246000fd5b60006119fc82610ffa565b91507fffffffffffffffffffffffffffffffffffffffffffffffffffffffffffffffff8203611a2e57611a2d6119c2565b5b600182019050919050565b600082825260208201905092915050565b6000611a5582611497565b611a5f8185611a39565b935083602082028501611a71856114b3565b8060005b85811015611aad5784840389528151611a8e8582611542565b9450611a9983611556565b925060208a01995050600181019050611a75565b50829750879550505050505092915050565b6000604082019050611ad46000830185611070565b8181036020830152611ae68184611a4a565b90509392505050565b600081549050919050565b60008190508160005260206000209050919050565b60008160001c9050919050565b6000819050919050565b6000611b39611b3483611b0f565b611b1c565b9050919050565b6000611b4c8254611b26565b9050919050565b6000600182019050919050565b6000611b6b82611aef565b611b7581856110d2565b9350611b8083611afa565b8060005b83811015611bb857611b9582611b40565b611b9f8882611102565b9750611baa83611b53565b925050600181019050611b84565b5085935050505092915050565b6000606082019050611bda600083018661177d565b611be76020830185611070565b8181036040830152611bf98184611b60565b9050949350505050565b7f4e487b7100000000000000000000000000000000000000000000000000000000600052603260045260246000fd5b7f4e487b7100000000000000000000000000000000000000000000000000000000600052602260045260246000fd5b60006002820490506001821680611c7957607f821691505b602082108103611c8c57611c8b611c32565b5b50919050565b7f4f6e6c7920746865206173736f63696174656420757365722063616e2061707060008201527f726f766520746869732072657175657374000000000000000000000000000000602082015250565b6000611cee6031836117fb565b9150611cf982611c92565b604082019050919050565b60006020820190508181036000830152611d1d81611ce1565b9050919050565b60008190508160005260206000209050919050565b60006020601f8301049050919050565b600082821b905092915050565b600060088302611d867fffffffffffffffffffffffffffffffffffffffffffffffffffffffffffffffff82611d49565b611d908683611d49565b95508019841693508086168417925050509392505050565b6000819050919050565b6000611dcd611dc8611dc384610ffa565b611da8565b610ffa565b9050919050565b6000819050919050565b611de783611db2565b611dfb611df382611dd4565b848454611d56565b825550505050565b600090565b611e10611e03565b611e1b818484611dde565b505050565b5b81811015611e3f57611e34600082611e08565b600181019050611e21565b5050565b601f821115611e8457611e5581611d24565b611e5e84611d39565b81016020851015611e6d578190505b611e81611e7985611d39565b830182611e20565b50505b505050565b600082821c905092915050565b6000611ea760001984600802611e89565b1980831691505092915050565b6000611ec08383611e96565b9150826002028217905092915050565b611ed9826114c3565b67ffffffffffffffff811115611ef257611ef16111ea565b5b611efc8254611c61565b611f07828285611e43565b600060209050601f831160018114611f3a5760008415611f28578287015190505b611f328582611eb4565b865550611f9a565b601f198416611f4886611d24565b60005b82811015611f7057848901518255600182019150602085019450602081019050611f4b565b86831015611f8d5784890151611f89601f891682611e96565b8355505b6001600288020188555050505b50505050505056fea2646970667358221220e99d8403dd5e44c35b4ad419f621a59f67e1c9f72289da93ab777eb6d02466f164736f6c63430008120033",
  "linkReferences": {},
  "deployedLinkReferences": {}
}