{
  "_format": "hh-sol-artifact-1",
  "contractName": "IdentityContract",
  "sourceName": "contracts/IdentityContract.sol",
  "abi": [
    {
      "anonymous": false,
      "inputs": [
        {
          "indexed": true,
          "internalType": "address",
          "name": "userAddress",
          "type": "address"
        },
        {
          "indexed": false,
          "internalType": "string",
          "name": "hash",
          "type": "string"
        }
      ],
      "name": "HashAssociated",
      "type": "event"
    },
    {
      "anonymous": false,
      "inputs": [
        {
          "indexed": true,
          "internalType": "uint256",
          "name": "userId",
          "type": "uint256"
        },
        {
          "indexed": true,
          "internalType": "address",
          "name": "publicKey",
          "type": "address"
        },
        {
          "indexed": false,
          "internalType": "string",
          "name": "ipfsHash",
          "type": "string"
        },
        {
          "indexed": false,
          "internalType": "string",
          "name": "userPublicKey",
          "type": "string"
        }
      ],
      "name": "UserRegistered",
      "type": "event"
    },
    {
      "inputs": [
        {
          "internalType": "string",
          "name": "_hash",
          "type": "string"
        }
      ],
      "name": "checkHashOwner",
      "outputs": [
        {
          "internalType": "address",
          "name": "",
          "type": "address"
        }
      ],
      "stateMutability": "view",
      "type": "function"
    },
    {
      "inputs": [
        {
          "internalType": "address",
          "name": "_userAddress",
          "type": "address"
        }
      ],
      "name": "getUser",
      "outputs": [
        {
          "internalType": "uint256",
          "name": "",
          "type": "uint256"
        },
        {
          "internalType": "address",
          "name": "",
          "type": "address"
        },
        {
          "internalType": "string",
          "name": "",
          "type": "string"
        },
        {
          "internalType": "string",
          "name": "",
          "type": "string"
        },
        {
          "internalType": "string",
          "name": "",
          "type": "string"
        }
      ],
      "stateMutability": "view",
      "type": "function"
    },
    {
      "inputs": [],
      "name": "getUserIPFSHash",
      "outputs": [
        {
          "internalType": "string",
          "name": "",
          "type": "string"
        }
      ],
      "stateMutability": "view",
      "type": "function"
    },
    {
      "inputs": [
        {
          "internalType": "string",
          "name": "",
          "type": "string"
        }
      ],
      "name": "hashCheck",
      "outputs": [
        {
          "internalType": "address",
          "name": "",
          "type": "address"
        }
      ],
      "stateMutability": "view",
      "type": "function"
    },
    {
      "inputs": [
        {
          "internalType": "string",
          "name": "_ipfsHash",
          "type": "string"
        },
        {
          "internalType": "string",
          "name": "_userPublicKey",
          "type": "string"
        }
      ],
      "name": "registerUser",
      "outputs": [],
      "stateMutability": "nonpayable",
      "type": "function"
    },
    {
      "inputs": [
        {
          "internalType": "string",
          "name": "_encryptedIpfsHash",
          "type": "string"
        }
      ],
      "name": "setRequesterIpfsHash",
      "outputs": [],
      "stateMutability": "nonpayable",
      "type": "function"
    },
    {
      "inputs": [
        {
          "internalType": "address",
          "name": "",
          "type": "address"
        }
      ],
      "name": "users",
      "outputs": [
        {
          "internalType": "uint256",
          "name": "id",
          "type": "uint256"
        },
        {
          "internalType": "address",
          "name": "publicKey",
          "type": "address"
        },
        {
          "internalType": "string",
          "name": "ipfsHash",
          "type": "string"
        },
        {
          "internalType": "string",
          "name": "encryptedIpfsHash",
          "type": "string"
        },
        {
          "internalType": "bool",
          "name": "userFlag",
          "type": "bool"
        },
        {
          "internalType": "bool",
          "name": "requesterFlag",
          "type": "bool"
        },
        {
          "internalType": "string",
          "name": "userPublicKey",
          "type": "string"
        }
      ],
      "stateMutability": "view",
      "type": "function"
    }
  ],
  "bytecode": "0x6080604052600060025534801561001557600080fd5b5061174b806100256000396000f3fe608060405234801561001057600080fd5b506004361061007d5760003560e01c8063802013ea1161005b578063802013ea146100f057806389392ba014610120578063a87430ba14610150578063c5a2dc5e146101865761007d565b80631d2e4afd1461008257806363045eb91461009e5780636f77926b146100bc575b600080fd5b61009c60048036038101906100979190610e95565b6101a2565b005b6100a6610519565b6040516100b39190610f8c565b60405180910390f35b6100d660048036038101906100d1919061100c565b61066e565b6040516100e7959493929190611061565b60405180910390f35b61010a600480360381019061010591906110c9565b6109c0565b6040516101179190611112565b60405180910390f35b61013a600480360381019061013591906110c9565b610a09565b6040516101479190611112565b60405180910390f35b61016a6004803603810190610165919061100c565b610a51565b60405161017d9796959493929190611148565b60405180910390f35b6101a0600480360381019061019b91906110c9565b610c65565b005b60008060003373ffffffffffffffffffffffffffffffffffffffff1673ffffffffffffffffffffffffffffffffffffffff1681526020019081526020016000206000015414610226576040517f08c379a000000000000000000000000000000000000000000000000000000000815260040161021d90611218565b60405180910390fd5b600073ffffffffffffffffffffffffffffffffffffffff1660018360405161024e9190611274565b908152602001604051809103902060009054906101000a900473ffffffffffffffffffffffffffffffffffffffff1673ffffffffffffffffffffffffffffffffffffffff16146102d3576040517f08c379a00000000000000000000000000000000000000000000000000000000081526004016102ca906112fd565b60405180910390fd5b600260008154809291906102e69061134c565b919050555060006040518060e0016040528060025481526020013373ffffffffffffffffffffffffffffffffffffffff168152602001848152602001604051806020016040528060008152508152602001600115158152602001600015158152602001838152509050806000803373ffffffffffffffffffffffffffffffffffffffff1673ffffffffffffffffffffffffffffffffffffffff1681526020019081526020016000206000820151816000015560208201518160010160006101000a81548173ffffffffffffffffffffffffffffffffffffffff021916908373ffffffffffffffffffffffffffffffffffffffff16021790555060408201518160020190816103f491906115a0565b50606082015181600301908161040a91906115a0565b5060808201518160040160006101000a81548160ff02191690831515021790555060a08201518160040160016101000a81548160ff02191690831515021790555060c082015181600501908161046091906115a0565b50905050336001846040516104759190611274565b908152602001604051809103902060006101000a81548173ffffffffffffffffffffffffffffffffffffffff021916908373ffffffffffffffffffffffffffffffffffffffff1602179055503373ffffffffffffffffffffffffffffffffffffffff166002547fa344e693e566279a8e48845c27d4ca008ad9412a78a07dac2af66fca3083e4f5858560405161050c929190611672565b60405180910390a3505050565b606060008060003373ffffffffffffffffffffffffffffffffffffffff1673ffffffffffffffffffffffffffffffffffffffff168152602001908152602001600020600001540361059f576040517f08c379a0000000000000000000000000000000000000000000000000000000008152600401610596906116f5565b60405180910390fd5b6000803373ffffffffffffffffffffffffffffffffffffffff1673ffffffffffffffffffffffffffffffffffffffff16815260200190815260200160002060020180546105eb906113c3565b80601f0160208091040260200160405190810160405280929190818152602001828054610617906113c3565b80156106645780601f1061063957610100808354040283529160200191610664565b820191906000526020600020905b81548152906001019060200180831161064757829003601f168201915b5050505050905090565b600080606080606060008060008873ffffffffffffffffffffffffffffffffffffffff1673ffffffffffffffffffffffffffffffffffffffff16815260200190815260200160002060000154036106fa576040517f08c379a00000000000000000000000000000000000000000000000000000000081526004016106f1906116f5565b60405180910390fd5b60008060008873ffffffffffffffffffffffffffffffffffffffff1673ffffffffffffffffffffffffffffffffffffffff1681526020019081526020016000206040518060e0016040529081600082015481526020016001820160009054906101000a900473ffffffffffffffffffffffffffffffffffffffff1673ffffffffffffffffffffffffffffffffffffffff1673ffffffffffffffffffffffffffffffffffffffff1681526020016002820180546107b5906113c3565b80601f01602080910402602001604051908101604052809291908181526020018280546107e1906113c3565b801561082e5780601f106108035761010080835404028352916020019161082e565b820191906000526020600020905b81548152906001019060200180831161081157829003601f168201915b50505050508152602001600382018054610847906113c3565b80601f0160208091040260200160405190810160405280929190818152602001828054610873906113c3565b80156108c05780601f10610895576101008083540402835291602001916108c0565b820191906000526020600020905b8154815290600101906020018083116108a357829003601f168201915b505050505081526020016004820160009054906101000a900460ff161515151581526020016004820160019054906101000a900460ff1615151515815260200160058201805461090f906113c3565b80601f016020809104026020016040519081016040528092919081815260200182805461093b906113c3565b80156109885780601f1061095d57610100808354040283529160200191610988565b820191906000526020600020905b81548152906001019060200180831161096b57829003601f168201915b50505050508152505090508060000151816020015182604001518360c001518460600151955095509550955095505091939590929450565b6001818051602081018201805184825260208301602085012081835280955050505050506000915054906101000a900473ffffffffffffffffffffffffffffffffffffffff1681565b6000600182604051610a1b9190611274565b908152602001604051809103902060009054906101000a900473ffffffffffffffffffffffffffffffffffffffff169050919050565b60006020528060005260406000206000915090508060000154908060010160009054906101000a900473ffffffffffffffffffffffffffffffffffffffff1690806002018054610aa0906113c3565b80601f0160208091040260200160405190810160405280929190818152602001828054610acc906113c3565b8015610b195780601f10610aee57610100808354040283529160200191610b19565b820191906000526020600020905b815481529060010190602001808311610afc57829003601f168201915b505050505090806003018054610b2e906113c3565b80601f0160208091040260200160405190810160405280929190818152602001828054610b5a906113c3565b8015610ba75780601f10610b7c57610100808354040283529160200191610ba7565b820191906000526020600020905b815481529060010190602001808311610b8a57829003601f168201915b5050505050908060040160009054906101000a900460ff16908060040160019054906101000a900460ff1690806005018054610be2906113c3565b80601f0160208091040260200160405190810160405280929190818152602001828054610c0e906113c3565b8015610c5b5780601f10610c3057610100808354040283529160200191610c5b565b820191906000526020600020905b815481529060010190602001808311610c3e57829003601f168201915b5050505050905087565b60008060003373ffffffffffffffffffffffffffffffffffffffff1673ffffffffffffffffffffffffffffffffffffffff1681526020019081526020016000206000015403610ce9576040517f08c379a0000000000000000000000000000000000000000000000000000000008152600401610ce0906116f5565b60405180910390fd5b806000803373ffffffffffffffffffffffffffffffffffffffff1673ffffffffffffffffffffffffffffffffffffffff1681526020019081526020016000206003019081610d3791906115a0565b5050565b6000604051905090565b600080fd5b600080fd5b600080fd5b600080fd5b6000601f19601f8301169050919050565b7f4e487b7100000000000000000000000000000000000000000000000000000000600052604160045260246000fd5b610da282610d59565b810181811067ffffffffffffffff82111715610dc157610dc0610d6a565b5b80604052505050565b6000610dd4610d3b565b9050610de08282610d99565b919050565b600067ffffffffffffffff821115610e0057610dff610d6a565b5b610e0982610d59565b9050602081019050919050565b82818337600083830152505050565b6000610e38610e3384610de5565b610dca565b905082815260208101848484011115610e5457610e53610d54565b5b610e5f848285610e16565b509392505050565b600082601f830112610e7c57610e7b610d4f565b5b8135610e8c848260208601610e25565b91505092915050565b60008060408385031215610eac57610eab610d45565b5b600083013567ffffffffffffffff811115610eca57610ec9610d4a565b5b610ed685828601610e67565b925050602083013567ffffffffffffffff811115610ef757610ef6610d4a565b5b610f0385828601610e67565b9150509250929050565b600081519050919050565b600082825260208201905092915050565b60005b83811015610f47578082015181840152602081019050610f2c565b60008484015250505050565b6000610f5e82610f0d565b610f688185610f18565b9350610f78818560208601610f29565b610f8181610d59565b840191505092915050565b60006020820190508181036000830152610fa68184610f53565b905092915050565b600073ffffffffffffffffffffffffffffffffffffffff82169050919050565b6000610fd982610fae565b9050919050565b610fe981610fce565b8114610ff457600080fd5b50565b60008135905061100681610fe0565b92915050565b60006020828403121561102257611021610d45565b5b600061103084828501610ff7565b91505092915050565b6000819050919050565b61104c81611039565b82525050565b61105b81610fce565b82525050565b600060a0820190506110766000830188611043565b6110836020830187611052565b81810360408301526110958186610f53565b905081810360608301526110a98185610f53565b905081810360808301526110bd8184610f53565b90509695505050505050565b6000602082840312156110df576110de610d45565b5b600082013567ffffffffffffffff8111156110fd576110fc610d4a565b5b61110984828501610e67565b91505092915050565b60006020820190506111276000830184611052565b92915050565b60008115159050919050565b6111428161112d565b82525050565b600060e08201905061115d600083018a611043565b61116a6020830189611052565b818103604083015261117c8188610f53565b905081810360608301526111908187610f53565b905061119f6080830186611139565b6111ac60a0830185611139565b81810360c08301526111be8184610f53565b905098975050505050505050565b7f5573657220616c72656164792072656769737465726564000000000000000000600082015250565b6000611202601783610f18565b915061120d826111cc565b602082019050919050565b60006020820190508181036000830152611231816111f5565b9050919050565b600081905092915050565b600061124e82610f0d565b6112588185611238565b9350611268818560208601610f29565b80840191505092915050565b60006112808284611243565b915081905092915050565b7f49504653206861736820616c7265616479206173736f6369617465642077697460008201527f6820616e6f746865722061646472657373000000000000000000000000000000602082015250565b60006112e7603183610f18565b91506112f28261128b565b604082019050919050565b60006020820190508181036000830152611316816112da565b9050919050565b7f4e487b7100000000000000000000000000000000000000000000000000000000600052601160045260246000fd5b600061135782611039565b91507fffffffffffffffffffffffffffffffffffffffffffffffffffffffffffffffff82036113895761138861131d565b5b600182019050919050565b7f4e487b7100000000000000000000000000000000000000000000000000000000600052602260045260246000fd5b600060028204905060018216806113db57607f821691505b6020821081036113ee576113ed611394565b5b50919050565b60008190508160005260206000209050919050565b60006020601f8301049050919050565b600082821b905092915050565b6000600883026114567fffffffffffffffffffffffffffffffffffffffffffffffffffffffffffffffff82611419565b6114608683611419565b95508019841693508086168417925050509392505050565b6000819050919050565b600061149d61149861149384611039565b611478565b611039565b9050919050565b6000819050919050565b6114b783611482565b6114cb6114c3826114a4565b848454611426565b825550505050565b600090565b6114e06114d3565b6114eb8184846114ae565b505050565b5b8181101561150f576115046000826114d8565b6001810190506114f1565b5050565b601f82111561155457611525816113f4565b61152e84611409565b8101602085101561153d578190505b61155161154985611409565b8301826114f0565b50505b505050565b600082821c905092915050565b600061157760001984600802611559565b1980831691505092915050565b60006115908383611566565b9150826002028217905092915050565b6115a982610f0d565b67ffffffffffffffff8111156115c2576115c1610d6a565b5b6115cc82546113c3565b6115d7828285611513565b600060209050601f83116001811461160a57600084156115f8578287015190505b6116028582611584565b86555061166a565b601f198416611618866113f4565b60005b828110156116405784890151825560018201915060208501945060208101905061161b565b8683101561165d5784890151611659601f891682611566565b8355505b6001600288020188555050505b505050505050565b6000604082019050818103600083015261168c8185610f53565b905081810360208301526116a08184610f53565b90509392505050565b7f55736572206e6f74207265676973746572656400000000000000000000000000600082015250565b60006116df601383610f18565b91506116ea826116a9565b602082019050919050565b6000602082019050818103600083015261170e816116d2565b905091905056fea2646970667358221220235781131cb6b7b7bbf81b65888ddd83542bbd898217a0c70d8cd25d84ec6f1464736f6c63430008120033",
  "linkReferences": {},
  "deployedLinkReferences": {}
}